:100000000000042059150000811500008315000030
:10001000851500008715000089150000000000000C
:100020000000000000000000000000006119000056
:100030008D150000000000008119000091150000DE
:10004000354800000D760000931500009315000060
:100050009315000093150000931500009315000000
:100060001D080000E5080000AD0900009315000020
:1000700093150000931500009315000093150000E0
:1000800093150000B91B00009315000093150000A4
:1000900093150000931500009315000093150000C0
:1000A0009315000093150000750A0000950B0000E1
:1000B00093150000931500000000000000000000F0
:1000C0009315000093150000931500009315000090
:1000D000C9930000931500009315000093150000CC
:1000E0009315000093150000931500000000000018
:1000F00000000000931500000000000093150000B0
:1001000000000000000000000000000000000000EF
:1001100000000000000000000000000000000000DF
:1001200000000000000000000000000000000000CF
:1001300000000000000000000000000000000000BF
:1001400000000000000000000000000000000000AF
:10015000000000000000000000000000000000009F
:10016000000000000000000000000000000000008F
:10017000000000000000000000000000000000007F
:10018000000000000000000000000000000000006F
:10019000000000000000000000000000000000005F
:1001A000000000000000000000000000000000004F
:1001B000000000000000000000000000000000003F
:1001C000000000000000000000000000000000002F
:1001D000000000000000000000000000000000001F
:1001E000000000000000000000000000000000000F
:1001F00000000000000000000000000000000000FF
:1002000010B5054C237833B9044B13B10448AFF350
:1002100000800123237010BD500200200000000068
:100220009CE000000C4B43B10C480D4910B5AFF3F6
:1002300000800C48036823B910BD0A48036833B92D
:100240007047094B002BF7D0BDE810401847064B0C
:10025000002BF5D0184700BF000000009CE0000014
:10026000540200203402002000000000154B002B37
:1002700008BF134B9D46A3F5803A00218B460F46DD
:100280001348144A121A0AF001F80F4B002B00D041
:1002900098470E4B002B00D0984700200021040007
:1002A0000D000D48002802D00C48AFF3008009F083
:1002B0008FFF2000290003F07FFF09F063FF00BFDC
:1002C0000000080000000420000000000000000002
:1002D0005002002094660120000000000000000091
:1002E00010B584B005F02CF8002005F023F8154C6B
:1002F0001A2005F00FF804A834F8043B20F8103D4C
:1003000005F01AF894E8030002AC84E803000E49F3
:1003100001A809F003FF214608220C4809F0ABFFB1
:10032000204605F00BF801A809F002FF05F038F8A7
:1003300005F02AF804B010BD01A809F0F9FE0AF092
:10034000EDFF00BF44CC0000F003002000000020BF
:100350002DE9F8439DF824709DF8209004460D4641
:10036000904600217D2231481E4609F08FFF87B359
:10037000B9F1000F49D0512323701EB1237843F007
:1003800020032370CC21B12204236170E27028493C
:1003900084F802800822237104F10D0009F06BFF3C
:1003A00021467E22214809F066FFA6B31F4F214E49
:1003B0000A2401E0013C35D07D21384605F00EF8D5
:1003C0002946304609F080FE0028F3D00020BDE821
:1003D000F883B9F1000F1BD141232370FF23C820FC
:1003E000B12104226070E1702271214684F80280FC
:1003F0006371A37107220D4809F03DFF04F10D015F
:1004000072220D4809F037FFCFE741232370B4E78C
:1004100051232370E2E77D21044804F0DFFF002030
:10042000BDE8F8836FF00300BDE8F883EC0200201C
:1004300000000020FC030020F30200202DE9F04F13
:100440008BB00446039109A83F499DF854B0079228
:100450001D4609F063FE04F0A3FF04F095FF24B1EC
:1004600008222146394809F006FF29460222384869
:1004700009F001FF0799374B0A46A3FB0223C3F398
:100480004713642202FB03F2914201D90133DBB22C
:10049000002B4CD1DFF8C4800593012288F8182086
:1004A00006920022A31A18BF01230493924616460F
:1004B0001FE064252F464FF00109039B264888F86A
:1004C000174099192A4609F0D6FE049B0193CDF8EE
:1004D000009052465B466421204888F81970FFF767
:1004E00037FF074690B9069B9C4222462E44A246FF
:1004F00016DA059B0AF101049A42E4B2D9D1079BAE
:100500009F1BFFB23D464FF00009D6E7144B15493B
:100510001888000440F0030000F07AFE6FF0030733
:1005200009A809F005FE38460BB0BDE8F08FDFF8EA
:100530002C80069388F81830013B0593B1E709A891
:1005400009F0F6FD0AF0EAFEF40300207103002032
:10055000810300201F85EB51860300206C030020DF
:100560004002002074CC0000044B188800040A46A6
:1005700040F00300024900F0BDBE00BF4002002071
:100580009CCC0000044B05491B881B04024643F029
:10059000030000F0AFBE00BF4002002090CC00007E
:1005A0007F29F8B518DC054600200C46164601F0F8
:1005B00005F81A490B680133B3F5FA7F0B601FD0B9
:1005C000174F3B7893B1284604F0F0FE0021154800
:1005D000BDE8F84009F082BD134B144918880004A7
:1005E00040F00300BDE8F84000F012BE2246294664
:1005F0000F4809F040FE0F4A012316703B70E2E7F6
:10060000BFF34F8F0C490D4BCA6802F4E0621343ED
:10061000CB60BFF34F8F00BFFDE700BFEC030020AE
:1006200069030020F80300204002002050CC0000A5
:100630006C020020EA03002000ED00E00400FA054F
:1006400049B108B5084604F0B1FE00210448BDE8F0
:10065000084009F043BD0021014809F03FBD00BF3B
:10066000FC03002008B5074809F04CFD064809F0D6
:1006700049FD064809F03CFD0548BDE8084009F081
:1006800037BD00BFF8030020FC030020F00300206A
:10069000F403002010B584B00446012100204FF47B
:1006A00080730290019100932246144B144915481F
:1006B00009F0C6FCC8B901234FF480718DE80A0027
:1006C00002932246104B1149114809F0B9FC08B9B0
:1006D00004B010BD0F4B10491888000440F0010011
:1006E00004B0BDE8104000F093BD0A4B0B491888D8
:1006F000000440F0010000F08BFDDCE7B8CC000006
:100700005D0700001C000020F0CC0000A9070000DD
:100710000800002040020020F8CC0000C8CC0000F7
:10072000F0B50C4F0C4E85B0782500240A2303A9A0
:10073000009301223B46019420468DF80C50FFF7B0
:100740007DFE204600F03AFF1421304609F0A0FC5F
:10075000EBE700BFB4CC00001C00002008B5FFF799
:10076000DFFF00BFF8B50D4D0D4F0E4E2A68012A70
:1007700006D93888000440F00300314600F0BAFD85
:1007800002F0A4FD044600F019FC0028FBD102F0A1
:100790009DFD001B286009F093FCE7E700040020A2
:1007A00040020020A8CC000008B5FFF7DBFF00BF27
:1007B000014809F077BC00BF0800002010B5074BC6
:1007C0001C8824040B460246054944F0030000F04F
:1007D00003FE402383F31188FEE700BF40020020A0
:1007E0004CCD000008B5044B04491888000440F0C3
:1007F000030000F00DFDFEE7400200201CCD0000CC
:10080000044B188800040A4640F00300024900F037
:1008100071BD00BF400200202CCD000000B52B4B65
:100820001A6883B022B12A4AD2F80423D20328D40A
:10083000284B1A6822B1264AD2F8042390032CD4FC
:10084000254B1A6822B1224AD2F80423510330D42E
:10085000224B1A6822B11E4AD2F80423120302D492
:1008600003B05DF804FB00221A601D4A1B68019367
:1008700051681368019A4FF4A670984703B05DF869
:1008800004FB00221A60164A1B6801935168136822
:10089000019A4FF4A0709847CAE700221A60104AE4
:1008A0001B68019351681368019A4FF4A27098472E
:1008B000C6E700221A600A4A1B6801935168136850
:1008C000019A4FF4A4709847C2E700BF40810040EE
:1008D0000080004044810040488100404C8100403D
:1008E0000404002000B52B4B1A6883B022B12A4AB9
:1008F000D2F80423D20328D4284B1A6822B1264AFE
:10090000D2F8042390032CD4254B1A6822B1224A32
:10091000D2F80423510330D4224B1A6822B11E4A64
:10092000D2F80423120302D403B05DF804FB0022C2
:100930001A601D4A1B6801931169D368019A4FF42C
:10094000A670984703B05DF804FB00221A60164AAF
:100950001B6801931169D368019A4FF4A0709847FE
:10096000CAE700221A60104A1B6801931169D36814
:10097000019A4FF4A2709847C6E700221A600A4A0B
:100980001B6801931169D368019A4FF4A4709847CA
:10099000C2E700BF409100400090004044910040F9
:1009A000489100404C9100400404002000B52B4BBE
:1009B0001A6883B022B12A4AD2F80423D20328D479
:1009C000284B1A6822B1264AD2F8042390032CD46B
:1009D000254B1A6822B1224AD2F80423510330D49D
:1009E000224B1A6822B11E4AD2F80423120302D401
:1009F00003B05DF804FB00221A601D4A1B680193D6
:100A0000D1699369019A4FF4A670984703B05DF8D5
:100A100004FB00221A60164A1B680193D16993698E
:100A2000019A4FF4A0709847CAE700221A60104A52
:100A30001B680193D1699369019A4FF4A27098479A
:100A4000C6E700221A600A4A1B680193D1699369BC
:100A5000019A4FF4A4709847C2E700BF40A100403C
:100A600000A0004044A1004048A100404CA100402B
:100A70000404002000B53F4B1A6883B022B13E4AFF
:100A8000D2F80423D00338D43C4B1A6822B13A4A36
:100A9000D2F8042391033CD4394B1A6822B1364A68
:100AA000D2F80423520340D4364B1A6822B1324A9A
:100AB000D2F80423100344D4334B1A6822B12E4ACF
:100AC000D2F80423D10248D4304B1A6822B12A4A02
:100AD000D2F80423920202D403B05DF804FB002292
:100AE0001A602B4A1B680193916A536A019A4FF46A
:100AF000AA70984703B05DF804FB00221A60244AEC
:100B00001B680193916A536A019A4FF4A070984749
:100B1000BAE700221A601E4A1B680193916A536A61
:100B2000019A4FF4A2709847B6E700221A60184A5B
:100B30001B680193916A536A019A4FF4A470984715
:100B4000B2E700221A60124A1B680193916A536A45
:100B5000019A4FF4A6709847AEE700221A600C4A3B
:100B60001B680193916A536A019A4FF4A8709847E1
:100B7000AAE700BF40A1014000A0014044A10140FC
:100B800048A101404CA1014050A1014054A10140A5
:100B90000404002000B53F4B1A6883B022B13E4ADE
:100BA000D2F80423D00338D43C4B1A6822B13A4A15
:100BB000D2F8042391033CD4394B1A6822B1364A47
:100BC000D2F80423520340D4364B1A6822B1324A79
:100BD000D2F80423100344D4334B1A6822B12E4AAE
:100BE000D2F80423D10248D4304B1A6822B12A4AE1
:100BF000D2F80423920202D403B05DF804FB002271
:100C00001A602B4A1B680193516B136B019A4FF4C6
:100C1000AA70984703B05DF804FB00221A60244ACA
:100C20001B680193516B136B019A4FF4A0709847A6
:100C3000BAE700221A601E4A1B680193516B136BBE
:100C4000019A4FF4A2709847B6E700221A60184A3A
:100C50001B680193516B136B019A4FF4A470984772
:100C6000B2E700221A60124A1B680193516B136BA2
:100C7000019A4FF4A6709847AEE700221A600C4A1A
:100C80001B680193516B136B019A4FF4A87098473E
:100C9000AAE700BF40B1014000B0014044B10140AB
:100CA00048B101404CB1014050B1014054B1014044
:100CB00004040020704700BF00B583B0044B0093CC
:100CC000044A4FF4807300F035F803B05DF804FB7C
:100CD000D90C00004404002002B32DE9F843114B65
:100CE000114E8846144643F0010903270025224689
:100CF00008EB0501002003F095FA03461D444FF46C
:100D00007A40E41A23B9337833B1C847013F06D09B
:100D100001233370002CEAD1BDE8F88370473770A7
:100D2000BDE8F88370CD000040040020704700BF8C
:100D300003F03CBBF0B595B0002415460F460846BD
:100D40001E4603F095FC384623460822089505A95F
:100D50001A9D09960D950A948DF82C400C9403F079
:100D6000DBFC9DF81430079806998DF8114003F0CC
:100D70000302012A0290039128D0022A04D03846A7
:100D800003F07AFC15B0F0BDBDF81650C3F3C203F2
:100D90008DF81030C5F389150826082D2C4628BF7C
:100DA0000824334622460EA9384603F0B5FC2D1B15
:100DB000214608AB02AA0EA8264404F0DBF9002D58
:100DC000EBD1384603F058FC15B0F0BDBDF8146007
:100DD000059DC6F38316C3F3C204B2000EA93846BC
:100DE00008238DF81040C5F3952503F095FC08AB5A
:100DF0000093324628460EA902AB04F015F9BEE76F
:100E000010B5054CFFF794FF2046042100F064FB69
:100E10000123637210BD00BF30000020F0B5334DD8
:100E200085B005F5836003F05DFD05F2144003F025
:100E300059FD6A68AF6802EA0701CB1C05EB830322
:100E4000541C187810F0030F00F003060ED010F0B9
:100E5000040016D0012E37D0022E02F10200ECD190
:100E60005A8800EB921202EA0701E6E74007F1D444
:100E700059881A8804EB911404EB921202EA0701D4
:100E8000DBE705EB8101531CC96801913B4005EB91
:100E9000830301F00301DB680293012902F10204DC
:100EA0001CD0022918D1BDF80630BDF80A60C3F382
:100EB0008913033304EB93040D4803F021FD00B1C3
:100EC0006C60304605B0F0BD1B880232C3F383135B
:100ED0001A4402EA0701B0E70646EDE7BDF8043020
:100EE000BDF80A60C3F383131C44E5E71406002031
:100EF000280A002008B50E4B0E480022FF21C3F837
:100F0000182499601A605A60C3F8142483F82024C6
:100F100003F064FB58B9084A084BD21AD20806D02D
:100F20000749034621F8233001339A42FAD108BD1C
:100F300014060020C8E00000C8E00000A0E00000A7
:100F40003802002021B9124A02EBC0000068704745
:100F500030B410490E4D491BC9080ED00E4B5A88AB
:100F6000824218BF002205D10FE0DC88844203F1E1
:100F7000040305D001329142F7D1002030BC704704
:100F800005EBC200006830BC70472846FAE700BF96
:100F9000A0E00000C8E0000038020020064B032952
:100FA00003EBC00005D0042901D14079704700202F
:100FB00070470079704700BFA0E000002DE9F047BE
:100FC0008E4C94E80C009A4284B061D00023C4F89F
:100FD0001834BFF34F8F6368A56827680EE011F0DF
:100FE000040623D001F0030101294BD0022903D1CB
:100FF0005288023303EB92139F4212D903EA050091
:10100000C21C04EB820211788E07E8D14807E9D4AC
:1010100051881288013303EB911303EB92139F4223
:10102000ECD80020676004B0BDE8F08704EB8000D6
:101030005A1CC16801912A4004EB820201F00301AD
:10104000D2680292022903F1020825D0012972D048
:10105000D4F8105435B12B6828469B6898476D68C2
:10106000002DF8D1664B67491888000440F0020053
:1010700000F0CEF860682368C01A18BF012004B0E1
:10108000BDE8F08712880233C2F383121344B3E73A
:10109000002004B0BDE8F087BDF806305A48C3F31D
:1010A0008919B9F1500FCA46A8BF4FF0500A6AF328
:1010B0008F130AF10801ADF8063003F091FA0746E4
:1010C0000028C5D003F0D4FA334625EA08060136D5
:1010D000082201A93846B60003F0F0FAB2457FD9DC
:1010E000002E68D1524608234849384603F0E6FAF4
:1010F00009F1030608EB9606D4F81834002B56D1F4
:10110000D4F810544DB16B7A3946284613B12B6888
:101110001B6898476D68002DF5D1384603F0ACFA8E
:10112000002002F08BFFD4F8183403B96660002069
:1011300002F08CFF9EE7BDF804303348C3F38312FE
:10114000062A28BF0622911C62F389138900ADF894
:10115000043003F045FA074600283FF479AF03F066
:1011600087FA3346082201A9384603F0A7FABDF8EA
:10117000043013F4707F3ED0B2464FF0080905EA00
:10118000080103314B4604EB81010422384603F089
:1011900095FABDF804300AF1010AC3F3831308F18C
:1011A0000106534509F10409B046E8D8A4E73846DA
:1011B00003F062FA5EE705EA08010331AAEB0605CF
:1011C00004EB810132463846EDB2082303F076FA8B
:1011D0002A4606F108030D49384603F06FFA87E7FF
:1011E00005EA0801033104EB810152460823384621
:1011F00003F064FA7CE746467EE700BF1406002051
:101200004002002084CD0000C8E00000200600203D
:101210002DE9F843DFF8D890074600208846D9F832
:10122000085002F00BFFD9F80820D9F80430D9F89B
:101230000060134401339B1B012B55D809F21C4459
:101240000121204603F032FBFFF7E8FD014620466E
:1012500003F02CFB99E80A00D9F808201344013365
:101260005B1A012BECD901240A40033244F0040339
:101270006FF3891349F8223002310020C9F80010B9
:1012800002F0E4FE0021194803F004FB80F3100093
:1012900033192B4009EB830300043540033540EA42
:1012A0001740D86019F8253067F3C50309F82530D1
:1012B00039F825306FF3891329F8253059F825209E
:1012C00068F39F22134664F301036FF3820349F826
:1012D000252009F8253099F820341BB1FFF76EFE60
:1012E0000028FBD1BDE8F8833146BCE7300A002076
:1012F000140600202DE9F047354C80460020924628
:101300008946A56802F09AFEA268636827681344BC
:101310000133DB1B022B59D804F21C460121304655
:1013200003F0C4FAFFF77AFD0146304603F0BEFA37
:1013300094E80A00A268134401335B1A022BEDD92A
:1013400001260A40033246F0040366F3891344F889
:10135000223003310020216002F078FEBB1C2B40BC
:1013600004EB830300211B48C3F80CA003F092FA9E
:1013700080F31000BB192B4004EB830300043D40B5
:10138000033540EA1840D86014F8253068F3C503E7
:1013900004F8253034F8253066F3891324F8253015
:1013A00054F8252069F39F22134666F301036FF377
:1013B000820344F8252004F8253094F820341BB12A
:1013C000FFF7FCFD0028FBD1BDE8F0873946B7E701
:1013D00014060020300A00202DE9F04F3C4C83B069
:1013E00080460020934601938946A66802F026FEB7
:1013F000A2686368276813440133DB1B032B64D89E
:1014000004F21C450121284603F050FAFFF706FDBF
:101410000146284603F04AFA94E80A00A2681344F9
:1014200001335B1A032BEDD901250A4003324FF03B
:10143000020A45F0040304316AF38913002044F8DA
:101440002230216002F002FE07EB0A0EFA1C0EEABF
:10145000060E324004EB820204EB8E0E019B1D4807
:10146000CEF80CB00021D36003F014FA80F3100022
:101470007A19324004EB820200043E40033640EA0F
:101480001840D06014F8262068F3C50204F826201E
:1014900034F826206AF3891224F8262054F82620EE
:1014A00069F39F22134665F301036FF3820344F847
:1014B000262004F8263094F820341BB1FFF77EFD77
:1014C0000028FBD103B0BDE8F08F3946ACE700BF80
:1014D00014060020300A002030B4144DD5F8104412
:1014E000002154B1237A8B4213D0234602E01A7AAA
:1014F0008A420ED05B68002BF9D10172D5F8103406
:101500007BB15B684360D5F810345860084630BC46
:10151000704701310A29E4D14FF0FF31084630BC51
:101520007047C5F810044360F0E700BF14060020C0
:1015300038B5084BD3F81044012583F820543CB14A
:101540002368657220465B6898476468002CF7D171
:1015500038BD00BF140600200649074A074B9B1AF6
:1015600003DD043BC858D050FBDC02F055FFFEF70A
:101570007DFE000018E30000000000205002002063
:10158000FEE7FEE7FEE7FEE7FEE7FEE7FEE7FEE733
:10159000FEE7FEE7074B1B5C1F2B86BF03F01F0314
:1015A00005494FF0A041012202FA03F3C1F80C35BE
:1015B000704700BFB0CD0000000300500A4B195C1B
:1015C0001F298ABF09484FF0A04001F01F01D0F841
:1015D000043501228A4022EA03011340C0F80815AD
:1015E000C0F80C35704700BFB0CD000000030050BC
:1015F000C20770B40ED483070AD54FF0A0430C2263
:10160000C3F82C27C3F83027C3F86027C3F8642732
:1016100070BC70474FF0A04303224FF400564FF4C4
:1016200080454FF400444FF48031C3F83427C3F8A9
:101630003827C3F83C27C3F84027C3F80865C3F828
:101640000855C3F80845C3F80815D4E72DE9F04755
:10165000DFF88C81054601F031FED8F80000002843
:101660006DD0594FD7F800E015EA0E0F60D1002D6C
:101670005ED008356B071CBF25F007050835002D27
:1016800056D0524E31688D4252D8514A146803E008
:10169000236823B122461C4663689D42F8D88442E1
:1016A00046D02368136063685A1B102A04F1080AA5
:1016B00021D904EB050919F0070F63D1C9F80420FB
:1016C000434A656000E01A4613689945FBD85168A3
:1016D0005018814560D0D9F8041009EB010083420D
:1016E00060D0C9F800304A4569D0C2F80090D7F8F8
:1016F00000E06368316837480268C91A91424EEACF
:1017000003034FF0000284E80C0038BF0160316031
:1017100001F082FEBAF1000F0CD01AF0070F04D0CE
:101720002D4940F20310FFF749F85046BDE8F08715
:1017300001F072FEFFF756F84FF0000AF5E7274B6D
:101740005A0726D0DA1D22F0070203F5A030801ACE
:1017500013461844083820F007001C491C4C1D4E45
:10176000194F2360C21A0A60002161604FF00044E3
:1017700041600160C8F8000032603C6083E8050009
:10178000A64671E71449C320FFF718F86268521B98
:1017900094E74FF4A030DCE7D9F80400014451602D
:1017A00091469AE7D8F8000083429AD05B681944C2
:1017B000C9F8041013681B68C9F8003093E7D7F81C
:1017C00000E03168636896E73C4A0120404A012006
:1017D000484A0120444A0120B4CD00003C0A0020C0
:1017E000380A0020002848D038B52C4D50F8043C69
:1017F0002A681342044610D050F8081CD9B1284971
:101800004FF48C70FEF7DAFF2A6854F8043C134258
:1018100002D054F8081C71B138BD214940F21710AC
:10182000FEF7CCFF54F8083C002BE8D12A6854F8A6
:10183000043C1A42F0D023EA020344F8043C01F0CD
:101840003DFD184854F8041C0368174A0B44036014
:10185000083C00E01A4613689C42FBD850681518F3
:10186000AC4216D06018834208D02360A24218BF51
:101870001460BDE8384001F0CFBD70470B480068E8
:101880008342F2D05B681944616013681B6823606F
:10189000ECE7014451601446E4E700BF3C4A0120F4
:1018A000B4CD0000404A0120484A0120380A0020F7
:1018B00000F108034FF0FF310022816002604360B5
:1018C000C3600361704700BF00230361704700BF1E
:1018D00043684B609A688A609A68516099600861B1
:1018E000036801330360704730B40D686B1C11D07E
:1018F00000F1080200E01A4653681C68A542FAD2BB
:101900004B6099608A60516008610368013303602D
:1019100030BC704702695368F2E700BF42688168D3
:10192000036991608268416851605A68904204BFBF
:1019300082685A60002202611A68013A1A601868C7
:10194000704700BF0548006880F3088862B661B63A
:10195000BFF34F8FBFF36F8F00DF00BF00000000A9
:10196000064B19680868B0E8F04F80F30988BFF3A8
:101970006F8F4FF0000080F3118870475C4A0120A0
:10198000EFF30980BFF36F8F144B1A681EF0100F2E
:1019900008BF20ED108A20E9F04F10604DF8043D9B
:1019A0004FF0400080F31188BFF34F8FBFF36F8F6C
:1019B00001F046FE4FF0000080F3118808BC196862
:1019C0000868B0E8F04F1EF0100F08BFB0EC108AA6
:1019D00080F30988BFF36F8F704700BF5C4A012016
:1019E00008B5064B1B68013303D005499E20FEF75E
:1019F000E5FE402383F31188FEE700BF584A01202B
:101A000020CE000030B46FF002034FF08075074C19
:101A100040F8081C40F8202C40F8045C40F80C4CBE
:101A200040F8243C30BC4438704700BFE119000046
:101A300030B5294A294B12689A4283B003D028490D
:101A4000B020FEF7BBFE274B274C1A782748D2B2AE
:101A5000FF21019219701B78DBB28DF803309DF8DD
:101A600003309DF8031003F00203072209062370D8
:101A700002600ED5062200E00A469DF803305B00A6
:101A8000DBB28DF803309DF803301B0602F1FF3105
:101A9000F2D4019B104C134D02F00702DBB2E0219F
:101AA00002602B7084F8221000F0C4F8104B114A29
:101AB00000211960D4F8883043F47003C4F88830EA
:101AC000536843F040435360236943F0100323619C
:101AD000FFF738FFFFF784FF00ED00E041C20F4140
:101AE00020CE000000E400E0504A0120544A0120CA
:101AF000584A012030EF00E0402383F31188094A5F
:101B000013680133012B136000D07047064B5B68EC
:101B1000C3F30803002BF8D0044940F21110FEF77C
:101B20004DBE00BF584A012000ED00E020CE00006D
:101B300010B5084C23682BB1013B23600BB983F32C
:101B4000118810BD04494FF48C70FEF737FE2368EE
:101B5000F2E700BF584A012020CE000008B5EFF39D
:101B60000583C3F308030F2B08D903F1E023F033F7
:101B70000D4A93F8003312789A420FD80B4B0C4A57
:101B8000DB681268C3F302239A4200D308BD0949F7
:101B90004FF4B170BDE80840FEF710BE05494FF4A0
:101BA000A970FEF70BFEE9E7504A012000ED00E0C6
:101BB000544A012020CE000070B582B0EFF31186A8
:101BC000402383F31188184A184BD2F80455002299
:101BD0001A601B680193019B01F078FB2D1A25F018
:101BE0007F45012D10D901F0D1FE022819D001F056
:101BF00073FB054625B10E4B4FF080525A6040BF33
:101C000086F3118802B070BD6C1E002DF8D000253F
:101C100000E01C4601F060FB631E0543002CF8D178
:101C2000E8E76C1EF3E700BF00100140001101401F
:101C300000ED00E0F8B5002002F04EFA0A4E0B4B22
:101C40000B4901221F270225E0244FF40030C3F87E
:101C50000875C3F8042332601A60C3F8445381F84E
:101C600011430860F8BD00BF08100140001001409A
:101C700000E100E070B50E46054670B306FB05F0C6
:101C80004830FFF7E3FC044618B326B300F14803DD
:101C90002360E5632664FFF72FFF236CE16B226866
:101CA000A26001FB03F1CB1A134400200A44FF2178
:101CB000A063E36084F84410626004F1100084F8CB
:101CC0004510FFF7F5FD04F12400FFF7F1FDFFF7E4
:101CD0002FFF204670BD0346DAE7034940F26D103E
:101CE000FEF76CFDCAE700BF8CCE00002DE9F04F77
:101CF00085B0884601921D460446002800F0C38145
:101D0000B8F1000F00F0C881022D00F02E8101F023
:101D10003DFE18B9019B002B40F02181FFF7ECFE3E
:101D2000A26BE36BA94F4FF000099A424E46C0F0F8
:101D30008B80022D00F023810198002800F08A8119
:101D4000B9F1000F00F00781FFF7F2FE01F0B6FADB
:101D5000FFF7D2FE94F84430FF2B08BF84F84460AC
:101D600094F84530FF2B08BF84F84560FFF7E0FE8C
:101D700001A902A801F0BAFD002840F01B81FFF77D
:101D8000BBFEA26BE36B9A427FD0FFF7D1FEFFF759
:101D9000B3FE94F845304FFA83FABAF1000F1ADD1A
:101DA000636AC3B104F1240907E00AF1FF33DBB22F
:101DB0004FFA83FA7BB1636A6BB1484601F046FD86
:101DC0000028F2D001F0DCFD0AF1FF33DBB24FFA5C
:101DD00083FA002BEFD1FF2384F84530FFF7A8FEEC
:101DE000FFF78AFE94F844304FFA83FABAF1000FF5
:101DF0001ADD2369C3B104F1100907E00AF1FF33CA
:101E0000DBB24FFA83FA7BB123696BB1484601F02C
:101E10001DFD0028F2D001F0B3FD0AF1FF33DBB263
:101E20004FFA83FA002BEFD1FF2384F84430FFF7F9
:101E30007FFE01F0F1FAFFF75FFEA26BE36B9A42BF
:101E40004FF00109BFF475AF226CA66B002A40F079
:101E500008812568002D00F029810136A663636A98
:101E60006BB104F1240001F0F1FC40B1574B4FF08D
:101E700080525A6040BFBFF34F8FBFF36F8FFFF7A1
:101E800057FE012005B0BDE8F08F04F11009FFF7FF
:101E90004FFE4846019901F025FCFFF72DFE94F80E
:101EA00045A04FFA8AFABAF1000F1CDD636AD3B17C
:101EB00004F1240B08E00AF1FF3A5FFA8AF34FFAC3
:101EC00083FA83B1636A73B1584601F0BFFC0028FE
:101ED000F1D00AF1FF3A01F053FD5FFA8AF34FFAAD
:101EE00083FA002BEED1FF2384F84530FFF720FE64
:101EF000FFF702FE94F844304FFA83FABAF1000F6C
:101F000006DC15E00AF1FF33DBB24FFA83FA7BB14E
:101F100023696BB1484601F099FC0028F2D001F02A
:101F20002FFD0AF1FF33DBB24FFA83FA002BEFD11A
:101F3000FF2384F84430FFF7FBFD01F06DFA002821
:101F40007FF479AF4FF080537B6040BFBFF34F8F7A
:101F5000BFF36F8F6FE702A801F0BCFCF4E61C49E9
:101F600040F2E120FEF72AFCD8E6E36B012B3FF4B8
:101F7000CEAE174940F2DE20FEF720FCC7E6226C09
:101F8000A66B002A3FF465AF4146E06808F073F99C
:101F9000236CE26821685B421A448A42E26005D2FF
:101FA00062681344E360022D7FF457AF002E08BF30
:101FB000012653E7FFF7A0FD94F845506DB2002DC0
:101FC0001ADD636AC3B104F1240609E000ED00E004
:101FD0008CCE0000013DEBB25DB26BB1636A5BB1C8
:101FE000304601F033FC0028F4D0013D01F0C8FC7C
:101FF000EBB25DB2002BF1D1FF2384F84530FFF73F
:1020000097FDFFF779FD94F844506DB2002D16DD71
:102010002369A3B104F1100605E0013DEBB25DB206
:102020006BB123695BB1304601F010FC0028F4D09D
:10203000013D01F0A5FCEBB25DB2002BF1D1FF2315
:1020400084F84430FFF774FD01F0E6F9002005B094
:10205000BDE8F08F0090FFF76BFD009805B0BDE87C
:10206000F08F4146002D2FD1A06808F004F9A36835
:10207000216C62680B449342A360FFF4EEAE2368C8
:10208000A3600136EAE617494FF43770FEF796FB76
:10209000B8F1000F7FF438AE236C002B3FF434AE60
:1020A000104940F2DD20FEF789FB2DE6606801361D
:1020B00001F0D4FCA663636A6560002B7FF4D1AEA7
:1020C00000287FF4D3AEDAE6E06808F0D4F8236C99
:1020D000E26821685B421A448A42E260BFF463AF5F
:1020E0005EE700BF8CCE000070B54820FFF7AEFA67
:1020F000044650B3002501232060C3630564FFF745
:10210000FBFC226CE36B2168A16003FB02F39A1ACB
:102110000A440B44FF26E2606360A56304F11000EB
:1021200084F8446084F84560FFF7C2FB04F12400A2
:10213000FFF7BEFBFFF7FCFC65602560E5602B4602
:102140002A4629462046FFF7D1FD204670BD00BF34
:102150002DE9F0470F4691461E460446002868D0F8
:10216000002F6DD0022E44D0FFF7F8FCEFF311885A
:10217000402383F31188A26BE36B9A4220D3022E93
:1021800004D0002088F31188BDE8F08794F845500A
:10219000226CD4F838A06DB2002A33D12668002E04
:1021A00067D00AF1010A6B1CC4F838A051D0013580
:1021B0006DB284F84550012088F31188BDE8F0879E
:1021C00094F84550226CD4F838A06DB2002AE5D0BE
:1021D000C6B93946A06808F04EF8A368216C626859
:1021E0000B449342A360DCD32368A3600AF1010A85
:1021F000D9E7E36B012BB7D021494FF46970FEF7A3
:10220000DDFAB1E73946E06808F035F8216CE3689B
:10221000226849420B449342E36002D26368194446
:10222000E160022EBDD1BAF1000F08BF4FF0010AE4
:10223000B9E7134940F2A230FEF7C0FA002F91D15E
:10224000236C002B8ED00E4940F2A330FEF7B6FA75
:1022500088E7636A002BAED004F1240001F0F6FA9F
:102260000028A8D0B9F1000FA5D00120C9F80000BE
:1022700088E7606801F0F2FB0AF1010A666092E704
:102280008CCE000070B50E460446002840D0236C6A
:10229000FBB923682BB3FFF761FCEFF311854023F3
:1022A00083F31188A26BE36B9A420ED294F8453007
:1022B00001325BB2A2635A1C1CD001335BB284F8BA
:1022C0004530012085F3118870BD002085F3118809
:1022D00070BD124940F24340FEF770FA2368002BAC
:1022E000D9D16368002BD6D00C494FF48960FEF732
:1022F00065FAD0E7636A002BE3D004F1240001F013
:10230000A5FA0028DDD0002EDBD001203060D9E70F
:10231000024940F23F40FEF751FAB8E78CCE000088
:102320002DE9F04784B08A4601920446002800F067
:102330008581BAF1000F00F08A8101F027FB18B9FE
:10234000019B002B40F07481FFF7D6FBA36BA54ED9
:1023500000273D46002B40F0ED80019B002B00F054
:102360006181002F00F00181FFF7E2FB00F0A6FF82
:10237000FFF7C2FB94F84430FF2B08BF84F84450A9
:1023800094F84530FF2B08BF84F84550FFF7D0FB89
:1023900001A902A801F0AAFA002868D1FFF7ACFB56
:1023A000A36B002B40F0E58004F12409FFF7C0FB8C
:1023B0004846019901F096F9FFF79EFB94F84530E5
:1023C0004FFA83F8B8F1000F06DC15E008F1FF338F
:1023D000DBB24FFA83F87BB1636A6BB1484601F018
:1023E00035FA0028F2D001F0CBFA08F1FF33DBB266
:1023F0004FFA83F8002BEFD1FF2384F84530FFF725
:1024000097FBFFF779FB94F844304FFA83F8B8F163
:10241000000F1ADD2369C3B104F1100907E008F1C8
:10242000FF33DBB24FFA83F87BB123696BB14846C7
:1024300001F00CFA0028F2D001F0A2FA08F1FF3303
:10244000DBB24FFA83F8002BEFD1FF2384F844303E
:10245000FFF76EFB00F0E0FF002864D14FF08053DF
:10246000736040BFBFF34F8FBFF36F8F5BE0FFF729
:1024700043FB94F845304FFA83F8B8F1000F1ADDAA
:10248000636AC3B104F1240907E008F1FF33DBB24A
:102490004FFA83F87BB1636A6BB1484601F0D6F915
:1024A0000028F2D001F06CFA08F1FF33DBB24FFAEA
:1024B00083F8002BEFD1FF2384F84530FFF738FB7A
:1024C000FFF71AFB94F844304FFA83F8B8F1000F85
:1024D0001ADD2369C3B104F1100907E008F1FF33E5
:1024E000DBB24FFA83F87BB123696BB1484601F048
:1024F000ADF90028F2D001F043FA08F1FF33DBB266
:102500004FFA83F8002BEFD1FF2384F84430FFF714
:102510000FFB00F081FFFFF7EFFAA36B002B00F039
:102520008180FFF705FBFFF7E7FAA36B0127002B7C
:102530003FF413AF226C62B1E1686068009311440C
:102540008142E16024BF2168E160504607F093FEBC
:10255000009B013BA3632369002B40F08280FFF7BF
:10256000E7FA012004B0BDE8F08702A801F0B2F953
:10257000FAE6FFF7DDFAFFF7BFFA94F845304FFAB5
:1025800083F8B8F1000F1ADD636AC3B104F12409BE
:1025900007E008F1FF33DBB24FFA83F87BB1636ADF
:1025A0006BB1484601F052F90028F2D001F0E8F989
:1025B00008F1FF33DBB24FFA83F8002BEFD1FF2392
:1025C00084F84530FFF7B4FAFFF796FA94F84430F0
:1025D0004FFA83F8B8F1000F1CDD2369D3B104F181
:1025E000100909E000ED00E008F1FF33DBB24FFA1B
:1025F00083F87BB123696BB1484601F027F90028C5
:10260000F2D001F0BDF908F1FF33DBB24FFA83F8E5
:10261000002BEFD1FF2384F84430FFF789FA00F054
:10262000FBFE80E7FFF784FA002004B0BDE8F087E6
:1026300014494FF49D60FEF7C1F885E6114940F258
:10264000DF40FEF7BBF8BAF1000F7FF476AE236CE3
:10265000002B3FF472AE0B4940F2E340FEF7AEF8B8
:102660006BE604F1100001F0F1F800283FF477AFB9
:10267000054B4FF080525A6040BFBFF34F8FBFF3FE
:102680006F8F6CE78CCE000000ED00E02DE9F04389
:1026900085B004460191002800F0BC81236C002B1A
:1026A00040F0A18101F072F918B9019B002B40F0B4
:1026B0007E81FFF721FAA36BB24F0026B046354664
:1026C000002B40F0E380019B002B00F07681B8F1F5
:1026D000000F00F05381FFF72BFA00F0EFFDFFF73A
:1026E0000BFA94F84430FF2B08BF84F8445094F858
:1026F0004530FF2B08BF84F84550FFF719FA01A9B0
:1027000002A801F0F3F800285CD1FFF7F5F9A36BFC
:10271000002B00F0CC80FFF70BFAFFF7EDF994F8EF
:1027200045304FFA83F8B8F1000F1ADD636AC3B180
:1027300004F1240907E008F1FF33DBB24FFA83F814
:102740007BB1636A6BB1484601F080F80028F2D093
:1027500001F016F908F1FF33DBB24FFA83F8002BD2
:10276000EFD1FF2384F84530FFF7E2F9FFF7C4F912
:1027700094F844304FFA83F8B8F1000F1ADD23695A
:10278000C3B104F1100907E008F1FF33DBB24FFADF
:1027900083F87BB123696BB1484601F057F80028F4
:1027A000F2D001F0EDF808F1FF33DBB24FFA83F815
:1027B000002BEFD1FF2384F84430FFF7B9F900F084
:1027C0002BFE5BE0FFF798F994F845304FFA83F859
:1027D000B8F1000F1ADD636AC3B104F1240907E000
:1027E00008F1FF33DBB24FFA83F87BB1636A6BB158
:1027F000484601F02BF80028F2D001F0C1F808F1AA
:10280000FF33DBB24FFA83F8002BEFD1FF2384F8BC
:102810004530FFF78DF9FFF76FF994F844304FFA20
:1028200083F8B8F1000F1ADD2369C3B104F1100970
:1028300007E008F1FF33DBB24FFA83F87BB123697D
:102840006BB1484601F002F80028F2D001F098F888
:1028500008F1FF33DBB24FFA83F8002BEFD1FF23EF
:1028600084F84430FFF764F900F0D6FDFFF744F92F
:10287000A36B002B00F08880FFF75AF9FFF73CF9B3
:10288000A36B4FF00108002B3FF41DAF2268013B02
:10289000A363002A00F0C4802369002B40F0A980C4
:1028A000FFF746F90126304605B0BDE8F083FFF793
:1028B0003FF92368002B00F08D8004F1240948467D
:1028C000019900F00FFFFFF717F994F845304FFA20
:1028D00083F8B8F1000F06DC15E008F1FF33DBB236
:1028E0004FFA83F87BB1636A6BB1484600F0AEFFE4
:1028F0000028F2D001F044F808F1FF33DBB24FFAC0
:1029000083F8002BEFD1FF2384F84530FFF710F94F
:10291000FFF7F2F894F844304FFA83F8B8F1000F5B
:102920001ADD2369C3B104F1100907E008F1FF3390
:10293000DBB24FFA83F87BB123696BB1484600F0F4
:1029400085FF0028F2D001F01BF808F1FF33DBB25D
:102950004FFA83F8002BEFD1FF2384F84430FFF7C0
:10296000E7F800F059FD002888D14FF080537B60D4
:1029700040BFBFF34F8FBFF36F8F7FE702A800F018
:10298000A9FFA8E600ED00E0FFF7D2F8002E8AD0FC
:10299000FFF7B2F8616A19B1236B1968C1F103013D
:1029A000606801F0B3F80026FFF7C2F87BE71E4924
:1029B00040F27A50FDF702FF7BE626B11A4940F259
:1029C000C250FDF7FBFEFFF7B3F80026304605B016
:1029D000BDE8F083FFF790F8606800F0E7FF064677
:1029E000FFF7A6F869E7104940F27550FDF7E6FEDB
:1029F00058E604F1100000F029FF00283FF450AF22
:102A00000A4B4FF080525A6040BFBFF34F8FBFF365
:102A10006F8F45E7044940F27150FDF7CFFE3DE668
:102A200001F0D6F8606037E78CCE000000ED00E0E2
:102A3000074B1A681AB19A6802B17047012210B4A4
:102A400003EBC20443F8321060605DF8044BF4E716
:102A5000685D012070B505460C461646FFF74CF838
:102A600095F84430FF2B04BF002385F8443095F8D7
:102A70004530FF2B04BF002385F84530FFF758F899
:102A8000AB6B2BB93246214605F1240000F07EFEE7
:102A9000FFF732F895F8454064B2002C16DD6B6AFA
:102AA000A3B105F1240605E0013CE3B25CB26BB1D1
:102AB0006B6A5BB1304600F0C9FE0028F4D0013CDF
:102AC00000F05EFFE3B25CB2002BF1D1FF2385F88A
:102AD0004530FFF72DF8FFF70FF895F8444064B242
:102AE000002C16DD2B69A3B105F1100605E0013CB1
:102AF000E3B25CB26BB12B695BB1304600F0A6FE6D
:102B00000028F4D0013C00F03BFFE3B25CB2002BA4
:102B1000F1D1FF2385F84430BDE87040FFF708B8D5
:102B200080B5184DDFF86880174F184EDFF864A0A5
:102B30004FF0805914E0FEF7DFFFFB68DC68201DD2
:102B4000FEF7ECFE3368013B33602B68013B2B60E2
:102B5000FEF7EEFF206BFEF745FE2046FEF742FE35
:102B60002B68002BE7D1D8F80030012B06D9CAF822
:102B7000049040BFBFF34F8FBFF36F8FFDF718FE78
:102B8000EEE700BFA84A01201C4B0120A44A012007
:102B9000684A012000ED00E02DE9F84F96008046DC
:102BA00030460D4699460B9FFEF750FD002800F079
:102BB000988082464C20FEF749FD0446002800F02C
:102BC0009C803246C0F830A0A521504607F05EFB3D
:102BD0002A78236B84F83420043E2A781E4426F099
:102BE00007068AB16B7884F835306B7863B1AB78BF
:102BF00084F83630AB783BB1EB7884F83730EB783B
:102C000013B12B7984F838300A9D022D28BF022594
:102C10004FF0000B04F1040AE562E563504684F8C6
:102C200039B0C4F840B0FEF74FFEC5F1030504F11A
:102C30001800FEF749FEC4F844B0A561246184F889
:102C400048B064624A4641463046FEF7DBFE2060EB
:102C500007B13C60FEF750FF3C4A3D4F136801331B
:102C600013603B68002B40D0DFF81881D8F80030A3
:102C70006BB3E36A374ADFF810E11668DEF800C08C
:102C8000354801252E44166005FA03F203EB830351
:102C900042EA0C0200EB83005146CEF80020FEF71A
:102CA00017FEFEF745FFD8F80030BBB13A68E36A7B
:102CB000D26A9A4212D2294B4FF080525A6040BFDA
:102CC000BFF34F8FBFF36F8F2846BDE8F88F3A6888
:102CD000E36AD26A9A4298BF3C60CBE72846BDE8D7
:102CE000F88F4FF0FF30BDE8F88F3C601368012B80
:102CF0000AD0E36ADFF88C80BCE75046FEF772FD2D
:102D00004FF0FF30BDE8F88F1348154E154DDFF832
:102D10007480FEF7CDFD1448FEF7CAFD1348FEF798
:102D2000C7FD3046FEF7C4FD2846FEF7C1FD10483A
:102D3000FEF7BEFD0F48FEF7BBFD0F48FEF7B8FDDE
:102D40000E4B0F4A1E60E36A156093E7A44A012008
:102D50005C4A0120B44A0120684A012000ED00E0ED
:102D6000BC4A0120D04A01207C4A0120904A01201F
:102D7000F04A01201C4B0120084B0120604A012031
:102D8000644A0120044B0120B84A012070B5044672
:102D9000344DFEF7B1FE002C52D0261D3046FEF712
:102DA000BDFD38B9E26A304902EB82039B00CB5883
:102DB000002B2FD0A36A1BB104F11800FEF7AEFD63
:102DC0002A4A296813688C4203F10103136039D041
:102DD000274A206B1368013B1360FEF703FD204672
:102DE000FEF700FD234B1A68126862B9224B4FF0C0
:102DF000FF321A60FEF79CFE204B1B6813B12B6854
:102E00009C4210D070BD1A681B4BD268D2685268C1
:102E10001A60EFE71A480121036801FA02F223EA77
:102E200002020260C6E7174B1B68A3B9164B4FF0AE
:102E300080525A6040BFBFF34F8FBFF36F8F70BD9A
:102E40002C68AAE731461148FEF742FD104A136884
:102E500001331360CEE70F4940F2A540FDF7AEFC09
:102E6000E4E700BF5C4A0120684A0120B44A01201F
:102E7000A44A0120604A0120E84A0120044B0120B5
:102E8000B84A0120B04A012000ED00E01C4B0120AF
:102E9000A84A0120E4CE0000F8B50446534EFEF7E0
:102EA0002BFE002C65D0251D2846FEF737FD30B9D6
:102EB000E26A4F4902EB82039B00CB58CBB1A36A75
:102EC0001BB104F11800FEF729FD294649484A4D77
:102ED000FEF7FEFC94F84830012B04BF002384F871
:102EE0004830FEF725FE2B6863B933689C4218D042
:102EF000F8BD42480121036801FA02F223EA020206
:102F00000260DCE7FEF7F8FD3D4B1A681268E2B993
:102F10003C4B4FF0FF321A60FEF70AFE33689C42CA
:102F2000E6D12B68C3B1384B1B6823B1374940F257
:102F3000A260FDF743FC364B4FF080525A6040BF11
:102F4000BFF34F8FBFF36F8FF8BD1A682D4BD26858
:102F5000D26852681A60DFE726492E4A096812686B
:102F6000914232D0284B1B682BB12B4B01221A60A7
:102F7000F8BD346897E7284A136033681B6B1A68FA
:102F8000B2F1A53F03D15A68B2F1A53F25D0306810
:102F900031683431FDF734FC184B154F1C68B4FA16
:102FA00084F4C4F11F05AC0063199B00FB5873B196
:102FB0002C44A4003A19083453685B6853603C44BD
:102FC000A34204BF5B685360DB683360F8BD0F4900
:102FD0004FF43560FDF7F2FBEAE79A68B2F1A53FDE
:102FE000D5D1DB68B3F1A53FD1D1D5E75C4A01204B
:102FF000684A0120084B0120044B0120B84A0120F7
:10300000604A0120E84A0120B04A0120E4CE0000D5
:1030100000ED00E0A44A0120344B012000283DD0FF
:10302000F8B5214D2B68984237D00446FEF764FD71
:103030001E4B62699A4203D0BDE8F840FEF778BDA6
:10304000A36A1B4A9342F7D0002BF5D1271D194ED6
:103050003846FEF763FCE26AD6F800E01648012322
:10306000934002EB820243EA0E0300EB82003946F2
:103070003360FEF72DFC2B68E26ADB6A9A42DBD3F1
:103080000E4B4FF080525A6040BFBFF34F8FBFF3DB
:103090006F8FBDE8F840FEF74BBDF8BD084940F220
:1030A000F660FDF78BBB00BF5C4A0120084B012096
:1030B000F04A0120B84A0120684A012000ED00E0F2
:1030C000E4CE00002DE9F843F020FEF7BFFA002817
:1030D00000F0988005464C20FEF7B8FA0446002818
:1030E00000F08D800563F0222846A52107F0CEF878
:1030F000206B5D4E00254FF0490E44214C224523A4
:1031000004F1040884F834E084F8351084F836209B
:1031100084F8373000F1EC0784F83850404684F8E2
:103120003950E562E5632564FEF7CEFB04F1180033
:10313000FEF7CAFB27F0070703232A466564A3614D
:103140004A4984F84850384624616462FEF75AFCC4
:10315000474B20601C60FEF7CFFC464A13680133E2
:1031600013603368002B54D0434F3B68002B3BD097
:10317000E36A424ADFF83CE11568DEF800C04048E7
:103180000135156001229A4003EB830342EA0C02E9
:1031900000EB83004146CEF80020FEF799FBFEF7D6
:1031A000C7FC3B686BB13268E36AD26A9A4208D2C4
:1031B000344B4FF080525A6040BFBFF34F8FBFF384
:1031C0006F8F00F05FFD012815D1402383F3118834
:1031D0002D4B2E494FF0FF3400220C6038601A60EE
:1031E000BDE8F843FEF724BC3268E36AD26A9A422B
:1031F00098BF3460BDE7013004D0BDE8F8832846AD
:10320000FEF7F0FA224940F2DC70BDE8F843FDF722
:10321000D5BA34601368012B02D0E36A164FA8E7D1
:103220001748DFF894901B4D134FFEF741FB1A48E7
:10323000FEF73EFB1948FEF73BFB4846FEF738FB1E
:103240002846FEF735FB1648FEF732FB1548FEF719
:103250002FFB1548FEF72CFB144B154AC3F80090C2
:10326000E36A156085E700BF5C4A0120212B00005E
:10327000E44A0120A44A0120044B0120B44A012061
:10328000684A012000ED00E0304B0120E84A0120AF
:10329000E4CE0000D04A01207C4A0120904A01205F
:1032A000F04A01201C4B0120084B0120604A0120FC
:1032B000644A0120B84A0120BC4A0120024A13682E
:1032C00001331360704700BFB04A0120014B1868FA
:1032D000704700BF304B01202DE9F04F424B1B6877
:1032E00083B0002B43D1414B1F6801371F60002F73
:1032F0004BD03F4B01931B689F4260D33D4EDFF89C
:103300000C81DFF80CA1DFF80C91002526E0336872
:10331000DB68DC68636804F1040B9F4258465FD3A6
:10332000FEF7FCFAA36A04F118000BB1FEF7F6FAF7
:10333000E06AD8F800200123834000EB80001343AB
:1033400059460AEB8000C8F80030FEF7C1FAD9F8F8
:103350000030E26ADB6A9A4228BF012533681B68A5
:10336000002BD4D1019A4FF0FF33136004E0224ABE
:103370001368013313600025204B1B68002B18BF16
:103380000125284603B0BDE8F08F1A4E33681B684C
:1033900003BB1B4B31681B4A186830601960136807
:1033A0000133136033681B685BB9114B01931A46F4
:1033B0004FF0FF33136013461B689F429ED20025D7
:1033C000DAE733680A4ADB680192DB685B681360FE
:1033D000134690E70C4940F63320FDF7EFF9D8E7A4
:1033E000019A1360C8E700BFB04A0120304B0120AA
:1033F000E84A0120604A0120AC4A0120344B0120F8
:10340000644A0120EC4A0120E4CE0000B84A0120C1
:10341000684A01205C4A01202DE9F84F3E4C2368A0
:10342000002B6CD0FEF768FB2368013B2360236808
:10343000002B5ED1394A1268002A5AD09A46DFF82A
:10344000FC90DFF8FCB0364EDFF8F880354F22E014
:10345000DBF80C30D3F80CA00AF104040AF11800D0
:10346000FEF75CFA2046FEF759FADAF82C003268CB
:1034700005FA00F300EB80001343214608EB8000BF
:103480003360FEF725FA3B68DAF82C20DB6A9A42B3
:1034900028BFC9F80050DBF800300125002BD7D138
:1034A000BAF1000F07D0204B1A6812686ABB1F4B95
:1034B0004FF0FF321A601E4E346844B10125FFF709
:1034C0000BFF08B1C9F80050013CF8D13460D9F8BD
:1034D000003073B1174B4FF080525A6040BFBFF3BA
:1034E0004F8FBFF36F8F0124FEF722FB2046BDE80C
:1034F000F88F0024FEF71CFB2046BDE8F88F0E492C
:103500004FF40460FDF75AF98CE71A68074BD2684C
:10351000D26852681A60CEE7B04A0120A44A01205E
:10352000B84A01205C4A0120604A0120E84A012093
:10353000AC4A012000ED00E0E4CE0000344B012055
:10354000F04A0120684A0120F8B50C4606460028DA
:103550005DD0002C4ED0314D2B68002B44D12A6811
:103560002F49336801322A600D689D421C4410D2F5
:10357000A34210D83460FFF74FFF002833D1294B06
:103580004FF080525A6040BFBFF34F8FBFF36F8F31
:10359000F8BDA34201D8A542ECD2234F34600E6897
:1035A00038680430FEF7BAF940B93B681F49D86A59
:1035B0000B680122824023EA02030B60751B2C4436
:1035C0003B68A6425C601BD8194B18683968043107
:1035D000FEF78AF9174B1A68944238BF1C60FFF750
:1035E0001BFF0028CBD0F8BD134940F2BB40FDF7CC
:1035F000E5F8B4E7104940F2BA40FDF7DFF8AAE772
:103600000E4B186839680431FEF76EF9B3E70A49C2
:1036100040F2B940FDF7D2F89BE700BFB04A012065
:10362000304B012000ED00E05C4A0120B84A012047
:10363000604A0120E84A0120E4CE0000644A0120EB
:10364000F8B5224B1B68002B35D1214A214F13605E
:103650003B681B6B1A68B2F1A53F1FD03868396808
:103660003431FDF7CDF81C4B1C4E1C68B4FA84F4C1
:10367000C4F11F05AC0063199B00F358FBB12C4447
:10368000A4003219083453685B6853603444A34281
:1036900004BF5B685360DB683B60F8BD5A68B2F1F9
:1036A000A53FDBD19A68B2F1A53FD7D1DB68B3F172
:1036B000A53FD3D1D7E7064B01221A60F8BD0849D0
:1036C0004FF43560FDF77AF8D9E700BFB04A012022
:1036D000344B01205C4A0120B84A0120684A01208D
:1036E000E4CE000070B50C460646002837D01F4DCA
:1036F000296830461831FEF7F7F81D4B1E68286818
:103700000430FEF70BF940B92B681A49D86A0B68E8
:103710000122824023EA02030B60631C18D0344468
:103720002B68A6425C600BD8134B186829680431DB
:10373000FEF7DAF8114B1A68944238BF1C6070BD6E
:103740000F4B18682968BDE870400431FEF7CCB80B
:1037500029680C480431BDE87040FEF7B9B80A4941
:103760004FF43660FDF72AF8C1E700BF5C4A01203C
:10377000304B0120B84A0120604A0120E84A01206C
:10378000644A0120084B0120E4CE0000F8B50C4645
:1037900017460646002842D0244D29683046183185
:1037A000FEF796F8224B1E68286804304FB3FEF7E8
:1037B000B5F8F8B94FF0FF342B681E49D86A0B688A
:1037C0000122824023EA02030B60631C10D03444C0
:1037D0002B68B4425C6019D3174B18682968043110
:1037E000FEF782F8154B1A68944217D21C60F8BD98
:1037F000002FECD0296812480431BDE8F840FEF7EC
:1038000067B8FEF78BF80028DFD1D5E70D4B1868B5
:103810002968BDE8F8400431FEF766B8F8BD0A49EA
:1038200040F68B30FCF7CAFFB6E700BF5C4A0120C8
:10383000304B0120B84A0120604A0120E84A0120AB
:10384000084B0120644A0120E4CE0000F8B5C368AB
:10385000DC6854B304F118052846FEF75FF8164BF0
:103860001B68EBB9261D154D3046FEF757F8E26A86
:103870002F6813480123934002EB82023B433146F9
:1038800000EB82002B60FEF723F80E4BE26A1B6808
:10389000DB6A9A4283BF0C4B012018600020F8BD00
:1038A00029460A48FEF714F8EFE7094940F6BB300D
:1038B000FCF784FFCEE700BFB04A0120B84A0120E0
:1038C000684A01205C4A0120344B0120F04A012063
:1038D000E4CE0000034A044B12681B6880E80C0029
:1038E000704700BFEC4A0120304B0120F8B50D466F
:1038F000044668B3002D36D0FEF7FEF82A681D494D
:10390000501C0B682AD0DFF874E02668DEF80070DF
:103910006068BE4201D0834209D21B1A93420BD386
:1039200000232B600125FEF703F92846F8BD012589
:10393000FEF7FEF82846F8BDDEF80000D31A0A6844
:103940002B6084E805000025FEF7F2F82846F8BD54
:10395000094940F62640FCF731FFCBE70025FEF78A
:10396000E7F82846F8BD044940F62740FCF726FF53
:10397000C2E700BF304B0120E4CE0000EC4A01203A
:10398000014B01221A607047344B0120054B1B6824
:1039900033B1054B1B68002B0CBF02200020704781
:1039A00001207047044B0120B04A012000284BD071
:1039B000F8B5274CC36A2268D26A934214D282694E
:1039C000002A04DB2268D26AC2F103028261214D1F
:1039D000426903EB830305EB83039A420CD023680F
:1039E000DB6AC3620120F8BD2368C06BDB6A9842C2
:1039F0002CBF00200120F8BD071D06463846FDF704
:103A00008DFF10BBF16A144A01EB81039B00EB5858
:103A100033B91368012000FA01F123EA01011160B2
:103A20002368D2F800E0D86AF062012404FA00F3B7
:103A300000EB800005EB800043EA0E03394613607B
:103A4000FDF746FF2046F8BD7047034AE8E700BF90
:103A50005C4A0120684A0120B84A012000284AD067
:103A6000F8B5264B1B689842044604D0244940F61A
:103A70003B70FCF7A3FE236CEBB1E16AE26B013B08
:103A80009142236400D00BB10020F8BD271D3846B9
:103A9000FDF744FFB0B9E26A1A481B4E02EB8203FD
:103AA0009B00C35883B93368012101FA02F223EA6B
:103AB0000202326008E0124940F63C70FCF77EFEDC
:103AC000236CDAE70F48104EE36BD6F800C0E362D0
:103AD0000125C3F1030E05FA03F203EB830342EA67
:103AE0000C0200EB83003946C4F818E03260FDF7A1
:103AF000EFFE2846F8BD0020704700BF5C4A012059
:103B0000E4CE0000684A0120B84A012000283ED0D7
:103B1000F8B5036C04460D46002B32D0E16BE36A26
:103B20008D4238BF0D46AB4202D0226C012A00D034
:103B3000F8BD234A126894423BD0A269E562002A8C
:103B4000A4BFC5F10305A5611E4D626903EB8303A4
:103B500005EB83039A42EBD1261D3046FDF7DEFECE
:103B6000E36AA8B10122184F9A4098003C682243AA
:103B700018443A6005EB80003146BDE8F840FDF797
:103B8000A7BE124940F68A70FCF718FEC6E77047D8
:103B90009800C2189200AA583AB90B4F012239680E
:103BA0009A4021EA02013960E0E701229A40064F7B
:103BB000DCE7064940F6A570FCF700FEE36ABCE7C7
:103BC0005C4A0120684A0120B84A0120E4CE000086
:103BD000044B1A681AB119680A6C01320A64186831
:103BE000704700BF5C4A01202DE9F047214EDFF805
:103BF0008C90DFF88C8084B00CE0DB68DC681F6898
:103C0000251D2846FDF78AFE636A20469847E3692A
:103C1000012B0AD033681A68002AEED1164A1168BF
:103C20003160136004B0BDE8F087A2693A4497425E
:103C30004FF0000A294617D3D9F8003073B1CDF8F8
:103C400000A001970294FFF7A1FE53465246694631
:103C5000D9F80000FEF74AF80028DBD1414640F2CF
:103C60006F30FCF7ABFDD5E7626024613068FDF78B
:103C70003BFECFE7384B01203C4B01206C4B012031
:103C80003CCF0000F0B51C4C83B0FDF735FF256834
:103C9000CDB1FDF74DFF23686BB1184B01930223A3
:103CA00000934FF40072002315491648FEF774FF85
:103CB00008B103B0F0BD14494FF48870FCF77EFDE5
:103CC000002003B0F0BD114F114E3846FDF7F0FD56
:103CD0003046FDF7EDFD0F4A0F4B176010212A46C5
:103CE00020201E60FDF7C6FF20600028D1D00B49C0
:103CF000FEF79EFECDE700BF6C4B0120704B01200C
:103D0000A0CF00008D3D00003CCF0000404B0120C3
:103D1000544B0120384B01203C4B012098CF000030
:103D200070B50D4686B0044610B3164E306870B1BB
:103D3000052D0295039204940BDCFFF727FE022861
:103D40000ED0002330681A4602A9FDF7CFFF06B057
:103D500070BD1A4602A90023FEF7FAF906B070BD3D
:103D600030680A9A002302A9FDF7C0FF06B070BDB3
:103D7000054940F283108DE80C00FCF71FFD9DE81B
:103D80000C00D2E76C4B01203CCF00002DE9F04F36
:103D9000814F824EDFF81492814D89B04FF00108B7
:103DA0003B681C68002C50D0DB68D3F800A0FFF7FC
:103DB00085FAFFF78BFA33689842834657D38245DA
:103DC00030605ED90022AAEB0B012868FEF742FEA4
:103DD000FFF722FB40B9734B4FF080525A6040BF4F
:103DE000BFF34F8FBFF36F8F002204A92868FEF73F
:103DF00097FA0028D4D0049B002B1EDB069C636935
:103E000013B1201DFDF78AFDFFF760FA3368984271
:103E1000834633D3049BC6F800B0092BE4D808FAD4
:103E200003F313F4047F49D113F0C70F54D19B0659
:103E3000DAD52046FDF7D6FCD6E7059B079906980C
:103E40009847049B002BCFDBD8E7FFF737FAFFF743
:103E50003DFA33689842834609D3D9F80030C6F852
:103E600000B01A68B2FA82F2A2465209ABE7FFF735
:103E7000BBFEC6F800B0FFF7CFFAB5E7FFF7B4FE18
:103E8000C8E7FFF7C9FA3B68DB68DC68211D084614
:103E90000391FDF743FDE2690399012A03D0636AA8
:103EA00020469847A0E7A26924610AEB0200584522
:103EB000606035D93868FDF717FDF0E7059BA36111
:103EC000002B4FD05B449B456360246159D2211D78
:103ED0003868FDF709FD87E7059BA16924615A1839
:103EE0005A45626039D8ABEB0303994249D8636AFB
:103EF00020469847E369012B7FF476AF0599A269C4
:103F000000230A44204600931946FFF709FF0028C2
:103F10007FF46AAF244940F2FE20FCF74FFC63E7D0
:103F2000ABEB0A0B5A4532D82B6883B14FF0000B2C
:103F3000CDF814A00694CDF810B0FFF727FD5B462E
:103F40005A4604A92868FDF7D1FE0028A7D11649D2
:103F500040F2E510FCF732FCA1E75B45B7D993428C
:103F6000B5D8C4E7104940F21530FCF727FCA36927
:103F7000246103EB0B025A456260A8D8002B3FF482
:103F800033AF211DD9F80000FDF7AEFC2CE7D9F8BE
:103F90000000FDF7A9FC82E7384B0120684B0120A7
:103FA0006C4B012000ED00E03CCF00003C4B0120B9
:103FB00000B585B000230390194601AA44F2010020
:103FC0000193029300F004F805B05DF804FB00BF14
:103FD00010B572B6FDF7ACFAFCF7F0FF0028FBD184
:103FE000104C11492088000440F00100FDF710F941
:103FF0000E4B1B68DB0700D500BE20880C4900046F
:1040000040F00200FDF704F9BFF34F8F09490A4B56
:10401000CA6802F4E0621343CB60BFF34F8F00BF66
:10402000FDE700BF40020020A8CF0000F0ED00E057
:10403000B4CF000000ED00E00400FA0572B6024AB9
:104040001368013313607047744B0120034A1368EF
:10405000013B136003B962B6704700BF744B012087
:1040600010B568B101280AD10C4C2369A07033B196
:104070000CCB0120226198472369002BF8D110BD99
:10408000064CA36801226270002BF8D00CCB0020F4
:10409000A2609847A368002BF8D110BD784B01208F
:1040A00010B50B4C237882B013B1852002B010BD3F
:1040B00008486360A3602361E36000F05BFB01904C
:1040C00000F066FB01980123237002B010BD00BF11
:1040D000784B01206140000038B5154DAB7804469F
:1040E00073B110B14368012098470020FFF7A6FF85
:1040F000EB680133EB600020BDE83840FFF7A6BF56
:1041000003F0FF00FFF79AFF64B12A6942B19442BD
:1041100008D0134601E09C4204D01B68002BFAD162
:1041200022602C61EB68002BE2D100F045FBDFE759
:10413000784B012038B5154D6B78044673B110B13A
:104140004368002098470020FFF778FF6B68013331
:104150006B600020BDE83840FFF778BF03F0FF0038
:10416000FFF76CFF64B1AA6842B1944208D01346CD
:1041700001E09C4204D01B68002BFAD12260AC60A5
:104180006B68002BE2D100F02FFBDFE7784B0120BA
:1041900038B5084C0020FFF751FF6368013B6360AE
:1041A000656815B900F032FB65700020BDE8384045
:1041B000FFF74CBF784B012070B505460E46012035
:1041C000002101F085F80020FDF7E4F94FF40041EB
:1041D0000020FCF78FFE08B1FFF7EAFE0D4CFCF75C
:1041E0000FFE20880C49000440F00300FDF710F892
:1041F000FCF776F8324629460848FCF74BFAFEF7FA
:1042000061FF20880649000440F00300FDF700F834
:10421000002070BD40020020CCCF00008C4B01205C
:10422000DCCF00002DE9F84F4400DFF87CA1261810
:104230000AEBC6068146D6F82C80B8F1010F8B46F2
:10424000174661D038D3B8F1020F30D100F101091F
:1042500009EB4909756A4FEAC9094FF000081CE0EB
:10426000326A641BBC420AEB09012346A2EB050437
:1042700028BF3B469C42486828BF1C4628445946F4
:10428000224605F0F8FF336A25449D4208BF002509
:104290003F1BA044A34475620BD0B36AAB4203F149
:1042A000FF34DDD8326A1344013B5C1BDAE74FF080
:1042B00000084046BDE8F88FB36A756AAB429CBF00
:1042C000326A9B18013B5B1B9F42F2D804440AEB05
:1042D000C40400F10109266A761B09EB4909B742BB
:1042E0000AEBC90A56D3DAF8040032462844BD1B4B
:1042F00005F0C1FFDAF804000BEB06012A4605F0D1
:10430000BAFFB8466562D4E7B36A756AAB4226D98C
:1043100003F1FF38366AA8EB0508B84528BFB84650
:10432000761BB04523D309F1010707EB47070AEBDA
:10433000C707A14478683246594628440AEBC90A9F
:10434000A8EB060505F097FF78680BEB06012A46F7
:1043500005F091FFCAF824504046BDE8F88F366A50
:1043600003EB060808F1FF38A8EB0508D5E709F1CB
:10437000010303EB43030AEBC303A14458680AEBB0
:10438000C90A284459464246454405F074FFCAF814
:1043900024508EE7DAF804003A4628443D4405F0FC
:1043A0006AFFB846656284E7785D0120F8B5144C71
:1043B000144BE3610823144A236102200023134EA7
:1043C000A3624FF4805710256362E362C4F8E830BB
:1043D000C4F8E430C4F8EC300D496061A261C4F85F
:1043E000D820E01D2762C4F8DC60C4F8E05006F075
:1043F0006FFA2046074906F06BFA2023A371F8BD37
:10440000785D0120A04B0120E8CF0000904B0120F7
:10441000F4CF0000F8CF000010B44FF080414FF00F
:1044200080520020C1F80C015E4BC1F81001C1F8A8
:104430003805D2F80414C3F82015D2F80814C3F8CC
:104440002415D2F80C14C3F82815D2F81014C3F8A8
:104450002C15D2F81414C3F83015D2F81814C3F878
:104460003415D2F81C14C3F84015D2F82014C3F840
:104470004415D2F82414C3F84815D2F82814C3F808
:104480004C15D2F82C14C3F85015D2F83014C3F8D8
:104490005415D2F83414C3F86015D2F83814C3F8A0
:1044A0006415D2F83C04C3F86805D2F840043E49CC
:1044B000C3F86C050968D2F84424C3F870250829AC
:1044C00024D04FF08043D3F80024D20744BF6FF0CC
:1044D0000102C3F80024354AD2F8883043F470034F
:1044E000C2F88830BFF34F8FBFF36F8F4FF01023A8
:1044F000D3F80022002A23DBD3F80432002B1FDB81
:104500002B4B2C4A1A605DF8044B70472A4B1B68F2
:10451000002BD6D129482A4A2A4C04602A492B4B21
:10452000FB20C2F818050A681B68294822F00F0210
:1045300003F00F0313434FF400720B600260C0E7F7
:10454000244B0122C3F80425D3F80024002AFBD011
:104550004FF0102312221F49C3F80022D1F8003473
:10456000002BFBD04FF0102212211A4BC2F804127C
:10457000D3F80024002AFBD000221649C3F80425F2
:10458000D1F80034002BFBD0BFF34F8F0749124BFB
:10459000CA6802F4E0621343CB60BFF34F8F00BFE1
:1045A000FDE700BF00C000403001001000ED00E05A
:1045B0003C0000200090D003340100108C560040D5
:1045C00000F0004048810300E40E00405802001053
:1045D0004096024000E001400400FA0500F09EB958
:1045E0002DE9F041B0F81480CF1CA8F1040847442D
:1045F0000646B7FBF8F700F0ADF980B3FFB200252F
:104600000123013F0446A0F806800660057143714E
:1046100028D0804609E06379AF4203F1010363715A
:10462000C8F80000066080461CD0304600F092F9C1
:1046300001350028EFD16679721E16D0234601306D
:1046400082421B68FBD81F684EB1214600250C68CA
:104650000135384600F0A4F9AE422146F7D10020DA
:10466000BDE8F0812046BDE8F0812768EDE700BF96
:104670000430012100F01AB9F8B5012104460430D4
:1046800000F022F9C0B200B1F8BD6679721E12D0F6
:104690002346013082421B68FBD81F68002EF3D0EE
:1046A000214600240D680134384600F079F9A6420D
:1046B0002946F7D1F8BD2768F2E700BF2DE9F84396
:1046C000C68804330F46B3FBF6F5904606FB153358
:1046D000044615B1013D2468FCD1F51A454528BFB3
:1046E0004546B8F1000F15D04FF000090433E0182B
:1046F000A8EB05082A4607EB090105F0BCFD464575
:10470000A944246835464FF0000328BF4546B8F158
:10471000000FEBD1BDE8F8832DE9F843C6880433D8
:104720000F46B3FBF6F5904606FB1531044615B16E
:10473000013D2468FCD1751A454528BF4546B8F1AE
:10474000000F15D04FF0000904312144A8EB0508F3
:104750002A4607EB090005F08EFD4645A94424686A
:1047600035464FF0000128BF4546B8F1000FEBD1A8
:10477000BDE8F883054A13790BB185207047012104
:104780001060537118461171704700BFA05B012083
:10479000084B1A68D20706D40122E02183F80013DF
:1047A000C3F880211A604FF080430122C3F8182516
:1047B000704700BF00E100E010B4094B094A002136
:1047C000196083B01B680193019C4FF08041022067
:1047D0000123C1F80403136003B05DF8044B704774
:1047E0000401004008000040074B00221A6082B01C
:1047F0001B68019301994FF080430122C3F8042301
:104800001A6002B0704700BF00010040074B012250
:104810001A604FF08042D2F80C3403F00113B3F168
:10482000011FF8D0024B00225A717047040000406B
:10483000A05B012010B5144B1A6882B062B1002150
:10484000124A19601B68507900934FF08041012390
:10485000009CC1F8083390B10D4B1A686AB1002270
:104860001A601B6801934FF080420221074B0198A8
:10487000C2F808131B680120984702B010BD1168E8
:1048800053718847E8E700BF00010040A05B0120AA
:104890000401004000B550E8002F0B4640E8003E00
:1048A0009EF0000FF7D110465DF804FB00B550E80C
:1048B000003F03EB010240E8002E9EF0000FF6D10E
:1048C00010465DF804FB00BF00B550E8003FA3EBC5
:1048D000010240E8002E9EF0000FF6D110465DF870
:1048E00004FB00BF00B5012350E8002F42EA030E8D
:1048F00040E800E191F0000FF6D170465DF804FB4E
:1049000000B5002350E800EF0EEA030240E8002162
:1049100091F0000FF6D170465DF804FBB8B130B4E9
:10492000416882680468521AD2B2531E2160DBB219
:1049300042B101680A685C1E551C0D601370E3B239
:10494000FF2BF6D103680020187130BC70470E2091
:10495000704700BF70B504460020FFF76FFB236867
:1049600061681A688A4215D9511E19602168A368C6
:104970000D680879A68A12F8012CE4685B1BDBB28B
:10498000984206FB024400D20B710020FFF75EFB49
:10499000204670BD00240020FFF758FB204670BD64
:1049A00038B5054600200C46FFF748FB2A68136817
:1049B000591C1160E968AA8A641AB4FBF2F41C70ED
:1049C0000020BDE83840FFF741BB00BF826802B954
:1049D000704710B504464369016800699847002391
:1049E000A36010BD0EB400B582B0039929B102AA2C
:1049F00004AB42F8043D00F095F802B05DF804EB1A
:104A000003B070472DE9F84F1746B942884606466D
:104A10001D46DDF828B00B9A7DD30B464FF00109F7
:104A2000B3FBF7F39F4209F10109F9D9A94538BF52
:104A3000A94612F0010A02D1BBF1000F49D1B268B8
:104A4000012402E0013D07FB04F4012DFAD8B8FB74
:104A5000F4F18F42F7D9324D05E0B4FBF7F4A4B17D
:104A6000B8FBF4F1B268685C531CB36033689854C7
:104A7000B26873689A4204FB1188EED33046FFF7A0
:104A8000A5FFB4FBF7F4002CEAD1BAF1000F16D061
:104A9000BBF1000F33D0CB4588BF20243ED9B3688B
:104AA0003268591CB160D454B26873689A420BF1F1
:104AB000FF3B06D2BBF1000F09D0D945EFD1BDE8CD
:104AC000F88F3046FFF782FFBBF1000FF5D1BDE84C
:104AD000F88F93071AD42024CB45B0D9B268336835
:104AE000511CB1609C54B26873689A420BF1FF3B51
:104AF00007D2BBF1000FA3D0CB45F0D1A0E7BDE8B2
:104B0000F88F3046FFF762FFB268F2E7002D0CBF66
:104B100030242024E0E74FF0010987E7BDE8F88F53
:104B200008D00000002900F06F822DE9F04F064602
:104B300085B093460C460B780DE0B2683168501C86
:104B4000B0608B54B26873689A4280F0D380237847
:104B5000002B00F0BA800134002B00F0B680252B2A
:104B6000EBD14FF00008234614F8012B2D2A00F05A
:104B7000BB80302A00F0BB802B2A00F0AD802A2AAF
:104B800000F0BC80A2F13005E9B2092998BF0133D9
:104B900002D9A9E1A1F130051C4613F8012BA2F1BD
:104BA000300005EB8501092802EB4101F2D92E2ADC
:104BB00000F0B080002701E014F8012F02F0FB03A1
:104BC000682BF9D0253A532A7AD8DFE812F07A0117
:104BD000790079007900790079007900790079000D
:104BE00079007900790079007900790079007900FD
:104BF00079007900790079007900790079007900ED
:104C000079007900790079007900790079007900DC
:104C100079007900790079007900790079007900CC
:104C200079007900790079007900790079007900BC
:104C3000790079006A0179007900790079007900BA
:104C4000790079007900790079005501FC0079003C
:104C5000790079007900FC00790079007900790009
:104C600079007900540079007900CA007900BA000F
:104C7000790079006A01DBF80020131DCBF80030C1
:104C8000B368156831685A1CB2604FF03002CA54DC
:104C9000B3687268934280F0A0813268581C782112
:104CA000B060D154B26873689A4280F09281002259
:104CB000082301922946009310223046FFF7A2FEF6
:104CC00001342378002B7FF446AF337B002B40F078
:104CD000058105B0BDE8F08F234614F8012B2D2A7D
:104CE00048F004087FF445AF48F001083BE748F07E
:104CF000020838E73046FFF769FE28E7DBF80020B6
:104D0000111DCBF8001015685A782E2A03F1010402
:104D10007FF450AF6278A2F13003092B04F1010453
:104D20004FF000073FF64AAF07EB870702EB470754
:104D300014F8012FA2F13003092BA7F13007F3D9A2
:104D40003CE7DBF800301A1DCBF800201968CDF8DD
:104D500004803B4600950A223046FFF753FE01349B
:104D6000AFE7DBF800301A1DCBF8002018F0010F78
:104D7000D3F8009040F0BB80B9F1000F00F04781FC
:104D8000484605F0ADFD0746BD4240F2F180002DDA
:104D900000F0EE804FF0200805E0BD4200F0E88012
:104DA000002D00F0E580B3683268591CB16002F84C
:104DB0000380B26873689A4205F1FF35EDD330463F
:104DC000FFF704FEE9E7DBF800301A1DCBF80020FE
:104DD000D3F8009089EAE973A3EBE973092B4FF04C
:104DE000010A09DD8F4A82FB0312DB17C3EBA20322
:104DF000092B0AF1010AF5DCBA4538BFBA462DB3D2
:104E0000B9F1000F02DB18F0040F00D0013D18F0DB
:104E1000020F40F0F58018F0010F17D1002D00F0BF
:104E2000FE80AA4538BF202110D2B2683368501CDA
:104E3000B0609954B26873689A4205F1FF3580F00A
:104E4000E880002D00F0EB80AA45EED1B9F1000F0B
:104E5000C0F2C88018F0040F7BD108F00303022BC6
:104E600000F09A808DE820013B4649460A223046F0
:104E7000FFF7C8FD013424E7DBF80020131DCBF851
:104E80000030B36831681278581CB060CA54B268F8
:104E900073689A42FFF414AF3046FFF797FD013470
:104EA0000FE7DBF800301A1DCBF800201968CDF8A9
:104EB00004803B46009510223046FFF7A3FD0134E5
:104EC000FFE6B3683268591CB1604FF02501D15438
:104ED000B26873689A42DFD20134F2E6304605B018
:104EE000BDE8F04FFFF772BD1C4600255FE64F4658
:104EF000A7EB090817F8013B8BB1B2683168501C69
:104F0000B0608B54B26873689A42F1D33046FFF7B1
:104F10005DFDA7EB090817F8013B002BEDD14545D6
:104F20007FF6CEAE202705E045453FF4C9AE002D03
:104F30003FF4C6AEB3683268591CB160D754B2684A
:104F400073689A4205F1FF35EED33046FFF73EFD18
:104F5000EAE7B2683368501C2B21B0609954B268FC
:104F600073689A42FFF479AF3046FFF72FFD74E77C
:104F700009F1FF3919F8013F002B3FF4A1AEB268E7
:104F80003168501CB0608B54B26873689A42F1D398
:104F90003046FFF71BFDEDE7002F7FF463AF002DD8
:104FA00033D0AA45BFF45EAFB2683368511CB1601C
:104FB0004FF030019954B26873689A4205F1FF3599
:104FC00003D215B3AA45EFD14CE73046FFF7FEFCFC
:104FD000F7E73046FFF7FAFC69E63046FFF7F6FCE4
:104FE000B3685AE6B2683368501C2D21B0609954FA
:104FF000B26873689A42C9F10009FFF42EAFB3E7B3
:10500000002F3FF423AF06E7704700252AE74F46FD
:10501000BAE630460391FFF7D9FC039911E7002562
:1050200014E700BF676666662DE9F04784B01D4649
:105030000C9C002394F80C802373EB8881460E4669
:105040001746002B3BD1297A05290FD06B7A002B0C
:105050003DD1404BA88853F821A00021FBF772FFF7
:10506000524603463C492046FFF7BCFC062F0FD8AA
:10507000DFE807F0484D535A04633900F168B0681F
:1050800096E80C000191009049462046FFF7AAFCE3
:105090002B7A052B05D06B7A5BB930492046FFF798
:1050A000A1FC2046FFF792FC84F80C8004B0BDE818
:1050B000F0872B4A2B492046FFF794FCEDE7284A5E
:1050C00000922949294A2046FFF78CFCBBE7A888B3
:1050D000FBF764FF264B234953F820202046FFF7B7
:1050E00081FC297AB5E77069316996E80C00039074
:1050F000B068F76802918DE8810049462046FFF7C5
:1051000071FCC5E749462046FFF76CFCC0E73268F2
:1051100049462046FFF766FCBAE7494696E80C0088
:105120002046FFF75FFCB3E7B16896E80C00204625
:1051300000914946FFF756FCAAE7B068F768316965
:1051400096E80C0002918DE8810049462046FFF761
:1051500049FC9DE788D0000078D0000084D0000092
:1051600070D0000064CD000058D0000050D0000086
:1051700018D00000082900D970472DE9F04F1D46CE
:10518000904600232A7B2B7385B0B8F80630039233
:1051900007460E46002B6BD198F80810052911D050
:1051A00098F80930002B6BD13C4BB8F8040053F849
:1051B00021400021FBF7C6FE224603463849284617
:1051C000FFF710FCDFF8F8B0DFF8F8900024A642F3
:1051D000494628463ED93A5D0134FFF703FC082CC6
:1051E000F5D13049DFF8E090DFF8E0B02846FFF76E
:1051F000F9FB002411E017F804A005F00DF8504465
:105200005946437813F0970F14BF52462E22284672
:105210000134FFF7E7FB082C08D0A6424946284690
:10522000E9D80134FFF7DEFB082CF6D198F80830F6
:10523000052B02D098F80930A3B91B492846FFF77F
:10524000D1FB2846FFF7C2FB9DF80C302B7305B04D
:10525000BDE8F08F013459462846FFF7C3FB082C00
:10526000B5D1BEE7114A12492846FFF7BBFBE4E778
:105270000E4A00920F49104A2846FFF7B3FB8BE70E
:10528000B8F80400FBF78AFE0C4B094953F82020BC
:105290002846FFF7A7FB98F8081085E788D000009C
:1052A00078D0000048D0000084D0000070D000000A
:1052B00064CD000058D0000050D0000018D000008D
:1052C00044D000003CD0000080D000004CD0000052
:1052D00008B5FCF78DF9002008BD00BF08B5034AEA
:1052E000034B04485F2104F02FFF00BF00D10000F2
:1052F00048D1000070D1000008B5034A034B0448B0
:1053000040F2BF1104F020FF10D1000028D10000AE
:1053100070D1000038B5044600F0AAFC05462046CE
:1053200000F0ACFCA54203D0BDE8384000F0E6BD7B
:1053300038BD00BF00F0B0BC00F00ABD00F014BDE5
:1053400008B500F0DFF801F0C3FF03F061FB00F0E7
:105350001FFA00F04FFC00F097FD03F0D9FB00F0BE
:105360004BFC00F0B7FD00F0BBFD02F075FF02F052
:10537000CBFF00F00BFD04F0EDF803F0CBF9BDE836
:10538000084004F029BC00BF08B501F0D1FF09288E
:105390009ABF024B185C012008BD00BFF4D000008A
:1053A000012300221846114600F09CBD08B590F874
:1053B0007F3023B9013800F09FFD38B108BD044BA0
:1053C000044A054840F2B91104F0BEFEFFF794FF0D
:1053D00030D1000010D1000070D100007D2910B53F
:1053E0000A460CD8074C01462046931C00F8013BA6
:1053F00004F041FF2046BDE8104004F0D1B9FFF7AA
:105400006DFF00BFA85B0120704700BF704700BF61
:10541000704700BF704700BF704700BF704700BFB4
:105420002DE9F04383B3354C94F800E04FF0080CBD
:105430004FFA8EF7002F5BDB7D107545ECB26EB234
:1054400058DA3BBB008805FB0CF504F1FF384D5BD7
:10545000854244D82FD2013463B2FC1A04EBD474D1
:1054600003EB64049F42E4B299463EDB66B27645A4
:105470003546E8DB01354D450ABF731CF3B2DBB29C
:1054800013700020BDE8F0831D4C4FF0020C94F81F
:1054900000E0CDE7D0F80080002305FB0CF501EB20
:1054A00005094D5945450AD81CD3D9F804904568DB
:1054B0004D4504D316D814700120BDE8F083013C9B
:1054C00067B2FC1A04EBD47403EB64049F42E4B2A9
:1054D00099460ADB66B276453546DEDBCAE74FFA07
:1054E00088F7BAE7013463B2EBE799463546C1E77E
:1054F0000023C5E74FF00009BCE700BF285C01208E
:10550000295C012005480649064A10B400230124FD
:1055100004700B7013705DF8044B7047905C0120B1
:10552000285C0120295C01201B4B1B7813B3827877
:1055300002F00C01082903D00C291DD01846704731
:1055400000F1080100B5407802F0C002400658BFE3
:105550000231802A83B012D0C02A07D10846012325
:105560000DF107020D49FFF75BFF0346184603B034
:105570005DF804FB0123E1E700F10E01E2E70846D4
:1055800000230DF107020649FFF74AFF03461846BC
:1055900003B05DF804FB00BF905C01202C5C01208F
:1055A0007C5C012008B5034A034B04484FF4BC71EE
:1055B00004F0CAFD68D20000E8D200001CD300004D
:1055C0002DE9F843614C2378002B00F0B98003F0FB
:1055D000FF06012E00F08E800020751E5C4FEDB29C
:1055E00097F80080012E5FFA88F80DD0D4E84F3F7D
:1055F000DBB29E4240F08880C4E8435F002BF5D1C7
:10560000012E1ED0BDE8F883DFF8809199F80030B4
:10561000002B40F08D80012889F8006051D003D321
:10562000022851D101F032FC012002F087FF10B1B5
:10563000484B02221A6003F0C3FA002389F80030B5
:10564000D4E7454AD2E84F0FC2E8413F0029F9D1DB
:1056500010F0FF0902D13B789845D3D02378F3B9F5
:10566000D4E84F3FDBB2FF2B5CD00133DBB2C4E8A0
:10567000423F002AF4D103F093FA012002F05EFFCA
:1056800018B1344B0222C3F88020BFF34F8FBFF311
:105690006F8F3B780133DBB248463B70A0E72F4A5F
:1056A0005368C3F30803ABB97F232D4A127852B273
:1056B0009A42D5D02B4B2C4A2C484FF48D7104F0D4
:1056C00043FD01F043FAAFE7294B2A4A27489021CE
:1056D00004F03AFD0F2B31D9103BDBB259B200294F
:1056E00019DB01F1604303F5614393F800335B0973
:1056F0005BB2DAE7184A0023D2E84F0FC2E8413F15
:105700000029F9D1C0B268E71B4B174A17484FF47C
:10571000867104F019FD03F00F03043B13441B7E54
:105720005B09E5E7154B164A1048D62104F00CFD3D
:10573000144B0D4A0D48FE2104F006FDFFF732FF21
:10574000114B094A0948F02104F0FEFC945C012049
:10575000925C012000E100E0955C012000ED00E09A
:10576000935C012028D10000F8D100001CD3000078
:10577000BCD20000CCD10000C4D20000D8D20000BE
:10578000E0D10000A8D20000A0D20000915C01206E
:105790000349044B0020FF2208701A70704700BFB5
:1057A000945C0120935C012008B5274A1378FBB96B
:1057B000D2E84F3FDBB2FF2B3ED00133DBB2C2E871
:1057C000413F0029F4D103F0EBF9012002F0B6FECD
:1057D00018B11E4B0222C3F88020BFF34F8FBFF3D6
:1057E0006F8F1B4A13780133DBB21370012008BDA1
:1057F00018494B68C3F308033BB97F21164B1B784C
:105800005BB28B42D4D0002008BD0F2B1AD9103BBD
:10581000DBB258B2002808DB00F1604303F56143B6
:1058200093F80013490949B2E8E703F00F03043B7A
:105830000B44197E4909F6E7084B094A0948D62165
:1058400004F082FCFFF7AEFE945C012000E100E072
:10585000925C012000ED00E0935C0120D8D20000B2
:10586000E0D100001CD3000008B5134AD2E84F3F36
:10587000DBB2FF2B19D00133DBB2C2E8413F002974
:10588000F4D103F08DF9012002F058FE18B10B4B52
:105890000222C3F88020BFF34F8FBFF36F8F084AF7
:1058A00013780133DBB2137008BD064B064A074874
:1058B000D62104F049FC00BF945C012000E100E027
:1058C000925C0120D8D20000E0D100001CD300007F
:1058D000FFF776BE08B51B4A1378FF2B22D11A4B6F
:1058E0001B7833B319494B68C3F3080313B97F23FB
:1058F000137008BD0F2B23D9103BDBB258B2002820
:1059000009DB00F1604303F5614393F800335B0961
:105910005BB2137008BD03F00F03043B0B441B7E06
:105920005B09F5E70A4B0B4A0B484FF4AC7104F0E6
:105930000BFC0A4B074A084840F2591104F004FCDA
:10594000FFF730FE935C0120945C012000ED00E045
:1059500070D3000010D200001CD30000CCD3000094
:1059600008B50C4B1A78120605D40B4A12784AB1C6
:10597000FF221A7008BD094B094A0A4840F261111A
:1059800004F0E2FB084B064A06484FF4B17104F0FC
:10599000DBFB00BF935C0120945C0120F4D300008A
:1059A0003CD200001CD30000CCD3000008B53C4A18
:1059B0001378002B40D1D2E84F3FDBB2FF2B66D0EB
:1059C0000133DBB2C2E8413F0029F4D103F0E8F82B
:1059D000012002F0B3FDE0B9BFF34F8FBFF36F8F2B
:1059E0003049314A0B780133DBB20B701378002B4E
:1059F00030D00120D2E84F3FDBB2012B16D013D3B9
:105A0000022B0BD10023C2E8413F0029F2D118BB81
:105A100008BD264B0222C3F88020DDE7244B254A2F
:105A20002548642104F090FB0123ECE7234B214A35
:105A300021485F2104F088FB21494B68C3F3080328
:105A400073B97F211F4B1B785BB28B42B3D0002010
:105A5000154ACFE701F07AF8BDE80840FFF7B0BD7E
:105A60000F2B1AD9103BDBB258B2002808DB00F12B
:105A7000604303F5614393F80013490949B2E1E734
:105A800003F00F03043B0B44197E4909F6E70E4B64
:105A90000E4A0948D62104F057FBFFF783FD00BFEB
:105AA000945C0120925C0120955C012000E100E003
:105AB000BCD20000B4D100001CD3000024D40000EC
:105AC00000ED00E0935C0120D8D20000E0D100009E
:105AD00008B53C4A1378002B40D1D2E84F3FDBB2E7
